{
  "_format": "hh-sol-artifact-1",
  "contractName": "therapy",
  "sourceName": "contracts/therapy.sol",
  "abi": [
    {
      "inputs": [],
      "stateMutability": "nonpayable",
      "type": "constructor"
    },
    {
      "inputs": [
        {
          "internalType": "string",
          "name": "_date",
          "type": "string"
        },
        {
          "internalType": "string",
          "name": "_slotTime",
          "type": "string"
        }
      ],
      "name": "addSlot",
      "outputs": [],
      "stateMutability": "nonpayable",
      "type": "function"
    },
    {
      "inputs": [
        {
          "internalType": "string",
          "name": "_name",
          "type": "string"
        },
        {
          "internalType": "string",
          "name": "_image",
          "type": "string"
        },
        {
          "internalType": "address",
          "name": "_walletAddress",
          "type": "address"
        },
        {
          "internalType": "string",
          "name": "_qualification",
          "type": "string"
        },
        {
          "internalType": "string",
          "name": "_about",
          "type": "string"
        },
        {
          "internalType": "string",
          "name": "_specialization",
          "type": "string"
        },
        {
          "internalType": "uint256",
          "name": "_payPerSlot",
          "type": "uint256"
        }
      ],
      "name": "addTherapist",
      "outputs": [],
      "stateMutability": "nonpayable",
      "type": "function"
    },
    {
      "inputs": [],
      "name": "admin",
      "outputs": [
        {
          "internalType": "address",
          "name": "",
          "type": "address"
        }
      ],
      "stateMutability": "view",
      "type": "function"
    },
    {
      "inputs": [
        {
          "internalType": "uint256",
          "name": "_slotIndex",
          "type": "uint256"
        },
        {
          "internalType": "string",
          "name": "_link",
          "type": "string"
        }
      ],
      "name": "bookSlot",
      "outputs": [],
      "stateMutability": "payable",
      "type": "function"
    },
    {
      "inputs": [],
      "name": "getAllSlots",
      "outputs": [
        {
          "components": [
            {
              "internalType": "uint256",
              "name": "index",
              "type": "uint256"
            },
            {
              "internalType": "string",
              "name": "date",
              "type": "string"
            },
            {
              "internalType": "string",
              "name": "slotTime",
              "type": "string"
            },
            {
              "internalType": "address",
              "name": "createdBy",
              "type": "address"
            },
            {
              "internalType": "address",
              "name": "bookedBy",
              "type": "address"
            },
            {
              "internalType": "bool",
              "name": "isAvailable",
              "type": "bool"
            },
            {
              "internalType": "bool",
              "name": "isCompleted",
              "type": "bool"
            },
            {
              "internalType": "string",
              "name": "link",
              "type": "string"
            }
          ],
          "internalType": "struct therapy.Slot[]",
          "name": "",
          "type": "tuple[]"
        }
      ],
      "stateMutability": "view",
      "type": "function"
    },
    {
      "inputs": [],
      "name": "getAllSlotsByBookedBy",
      "outputs": [
        {
          "components": [
            {
              "internalType": "uint256",
              "name": "index",
              "type": "uint256"
            },
            {
              "internalType": "string",
              "name": "date",
              "type": "string"
            },
            {
              "internalType": "string",
              "name": "slotTime",
              "type": "string"
            },
            {
              "internalType": "address",
              "name": "createdBy",
              "type": "address"
            },
            {
              "internalType": "address",
              "name": "bookedBy",
              "type": "address"
            },
            {
              "internalType": "bool",
              "name": "isAvailable",
              "type": "bool"
            },
            {
              "internalType": "bool",
              "name": "isCompleted",
              "type": "bool"
            },
            {
              "internalType": "string",
              "name": "link",
              "type": "string"
            }
          ],
          "internalType": "struct therapy.Slot[]",
          "name": "",
          "type": "tuple[]"
        }
      ],
      "stateMutability": "view",
      "type": "function"
    },
    {
      "inputs": [
        {
          "internalType": "address",
          "name": "_createdBy",
          "type": "address"
        }
      ],
      "name": "getAllSlotsByCreatedBy",
      "outputs": [
        {
          "components": [
            {
              "internalType": "uint256",
              "name": "index",
              "type": "uint256"
            },
            {
              "internalType": "string",
              "name": "date",
              "type": "string"
            },
            {
              "internalType": "string",
              "name": "slotTime",
              "type": "string"
            },
            {
              "internalType": "address",
              "name": "createdBy",
              "type": "address"
            },
            {
              "internalType": "address",
              "name": "bookedBy",
              "type": "address"
            },
            {
              "internalType": "bool",
              "name": "isAvailable",
              "type": "bool"
            },
            {
              "internalType": "bool",
              "name": "isCompleted",
              "type": "bool"
            },
            {
              "internalType": "string",
              "name": "link",
              "type": "string"
            }
          ],
          "internalType": "struct therapy.Slot[]",
          "name": "",
          "type": "tuple[]"
        }
      ],
      "stateMutability": "view",
      "type": "function"
    },
    {
      "inputs": [],
      "name": "getAllTherapists",
      "outputs": [
        {
          "components": [
            {
              "internalType": "string",
              "name": "name",
              "type": "string"
            },
            {
              "internalType": "string",
              "name": "image",
              "type": "string"
            },
            {
              "internalType": "address",
              "name": "walletAddress",
              "type": "address"
            },
            {
              "internalType": "string",
              "name": "qualification",
              "type": "string"
            },
            {
              "internalType": "string",
              "name": "about",
              "type": "string"
            },
            {
              "internalType": "string",
              "name": "specialization",
              "type": "string"
            },
            {
              "internalType": "uint256",
              "name": "payPerSlot",
              "type": "uint256"
            }
          ],
          "internalType": "struct therapy.Therapist[]",
          "name": "",
          "type": "tuple[]"
        }
      ],
      "stateMutability": "view",
      "type": "function"
    },
    {
      "inputs": [
        {
          "internalType": "uint256",
          "name": "",
          "type": "uint256"
        }
      ],
      "name": "slots",
      "outputs": [
        {
          "internalType": "uint256",
          "name": "index",
          "type": "uint256"
        },
        {
          "internalType": "string",
          "name": "date",
          "type": "string"
        },
        {
          "internalType": "string",
          "name": "slotTime",
          "type": "string"
        },
        {
          "internalType": "address",
          "name": "createdBy",
          "type": "address"
        },
        {
          "internalType": "address",
          "name": "bookedBy",
          "type": "address"
        },
        {
          "internalType": "bool",
          "name": "isAvailable",
          "type": "bool"
        },
        {
          "internalType": "bool",
          "name": "isCompleted",
          "type": "bool"
        },
        {
          "internalType": "string",
          "name": "link",
          "type": "string"
        }
      ],
      "stateMutability": "view",
      "type": "function"
    },
    {
      "inputs": [
        {
          "internalType": "address",
          "name": "",
          "type": "address"
        },
        {
          "internalType": "uint256",
          "name": "",
          "type": "uint256"
        }
      ],
      "name": "therapistToSlots",
      "outputs": [
        {
          "internalType": "uint256",
          "name": "",
          "type": "uint256"
        }
      ],
      "stateMutability": "view",
      "type": "function"
    },
    {
      "inputs": [
        {
          "internalType": "uint256",
          "name": "",
          "type": "uint256"
        }
      ],
      "name": "therapists",
      "outputs": [
        {
          "internalType": "string",
          "name": "name",
          "type": "string"
        },
        {
          "internalType": "string",
          "name": "image",
          "type": "string"
        },
        {
          "internalType": "address",
          "name": "walletAddress",
          "type": "address"
        },
        {
          "internalType": "string",
          "name": "qualification",
          "type": "string"
        },
        {
          "internalType": "string",
          "name": "about",
          "type": "string"
        },
        {
          "internalType": "string",
          "name": "specialization",
          "type": "string"
        },
        {
          "internalType": "uint256",
          "name": "payPerSlot",
          "type": "uint256"
        }
      ],
      "stateMutability": "view",
      "type": "function"
    },
    {
      "inputs": [
        {
          "internalType": "address",
          "name": "",
          "type": "address"
        },
        {
          "internalType": "uint256",
          "name": "",
          "type": "uint256"
        }
      ],
      "name": "userToBookedSlots",
      "outputs": [
        {
          "internalType": "uint256",
          "name": "",
          "type": "uint256"
        }
      ],
      "stateMutability": "view",
      "type": "function"
    }
  ],
  "bytecode": "0x608060405234801561001057600080fd5b5033600460006101000a81548173ffffffffffffffffffffffffffffffffffffffff021916908373ffffffffffffffffffffffffffffffffffffffff1602179055506130eb806100616000396000f3fe6080604052600436106100a75760003560e01c80637165d6e9116100645780637165d6e9146101e2578063b702effb1461021f578063b7c2358014610248578063d3bc38da14610285578063db63e3a5146102b0578063f851a440146102d9576100a7565b806324aeac6b146100ac57806325e040ee146100d7578063387dd9e91461011a57806359f689d91461015e578063601f63d71461019b5780636285bfcf146101b7575b600080fd5b3480156100b857600080fd5b506100c1610304565b6040516100ce9190612313565b60405180910390f35b3480156100e357600080fd5b506100fe60048036038101906100f99190612375565b61069d565b604051610111979695949392919061240a565b60405180910390f35b34801561012657600080fd5b50610141600480360381019061013c9190612375565b6109b7565b6040516101559897969594939291906124b7565b60405180910390f35b34801561016a57600080fd5b5061018560048036038101906101809190612576565b610c01565b6040516101929190612732565b60405180910390f35b6101b560048036038101906101b09190612889565b611020565b005b3480156101c357600080fd5b506101cc61129f565b6040516101d99190612732565b60405180910390f35b3480156101ee57600080fd5b50610209600480360381019061020491906128e5565b6115a1565b6040516102169190612925565b60405180910390f35b34801561022b57600080fd5b5061024660048036038101906102419190612940565b6115d2565b005b34801561025457600080fd5b5061026f600480360381019061026a91906128e5565b611908565b60405161027c9190612925565b60405180910390f35b34801561029157600080fd5b5061029a611939565b6040516102a79190612732565b60405180910390f35b3480156102bc57600080fd5b506102d760048036038101906102d291906129b8565b611d56565b005b3480156102e557600080fd5b506102ee611f2a565b6040516102fb9190612ae6565b60405180910390f35b60606000805480602002602001604051908101604052809291908181526020016000905b8282101561069457838290600052602060002090600702016040518060e001604052908160008201805461035b90612b30565b80601f016020809104026020016040519081016040528092919081815260200182805461038790612b30565b80156103d45780601f106103a9576101008083540402835291602001916103d4565b820191906000526020600020905b8154815290600101906020018083116103b757829003601f168201915b505050505081526020016001820180546103ed90612b30565b80601f016020809104026020016040519081016040528092919081815260200182805461041990612b30565b80156104665780601f1061043b57610100808354040283529160200191610466565b820191906000526020600020905b81548152906001019060200180831161044957829003601f168201915b505050505081526020016002820160009054906101000a900473ffffffffffffffffffffffffffffffffffffffff1673ffffffffffffffffffffffffffffffffffffffff1673ffffffffffffffffffffffffffffffffffffffff1681526020016003820180546104d590612b30565b80601f016020809104026020016040519081016040528092919081815260200182805461050190612b30565b801561054e5780601f106105235761010080835404028352916020019161054e565b820191906000526020600020905b81548152906001019060200180831161053157829003601f168201915b5050505050815260200160048201805461056790612b30565b80601f016020809104026020016040519081016040528092919081815260200182805461059390612b30565b80156105e05780601f106105b5576101008083540402835291602001916105e0565b820191906000526020600020905b8154815290600101906020018083116105c357829003601f168201915b505050505081526020016005820180546105f990612b30565b80601f016020809104026020016040519081016040528092919081815260200182805461062590612b30565b80156106725780601f1061064757610100808354040283529160200191610672565b820191906000526020600020905b81548152906001019060200180831161065557829003601f168201915b5050505050815260200160068201548152505081526020019060010190610328565b50505050905090565b600081815481106106ad57600080fd5b90600052602060002090600702016000915090508060000180546106d090612b30565b80601f01602080910402602001604051908101604052809291908181526020018280546106fc90612b30565b80156107495780601f1061071e57610100808354040283529160200191610749565b820191906000526020600020905b81548152906001019060200180831161072c57829003601f168201915b50505050509080600101805461075e90612b30565b80601f016020809104026020016040519081016040528092919081815260200182805461078a90612b30565b80156107d75780601f106107ac576101008083540402835291602001916107d7565b820191906000526020600020905b8154815290600101906020018083116107ba57829003601f168201915b5050505050908060020160009054906101000a900473ffffffffffffffffffffffffffffffffffffffff169080600301805461081290612b30565b80601f016020809104026020016040519081016040528092919081815260200182805461083e90612b30565b801561088b5780601f106108605761010080835404028352916020019161088b565b820191906000526020600020905b81548152906001019060200180831161086e57829003601f168201915b5050505050908060040180546108a090612b30565b80601f01602080910402602001604051908101604052809291908181526020018280546108cc90612b30565b80156109195780601f106108ee57610100808354040283529160200191610919565b820191906000526020600020905b8154815290600101906020018083116108fc57829003601f168201915b50505050509080600501805461092e90612b30565b80601f016020809104026020016040519081016040528092919081815260200182805461095a90612b30565b80156109a75780601f1061097c576101008083540402835291602001916109a7565b820191906000526020600020905b81548152906001019060200180831161098a57829003601f168201915b5050505050908060060154905087565b600181815481106109c757600080fd5b90600052602060002090600602016000915090508060000154908060010180546109f090612b30565b80601f0160208091040260200160405190810160405280929190818152602001828054610a1c90612b30565b8015610a695780601f10610a3e57610100808354040283529160200191610a69565b820191906000526020600020905b815481529060010190602001808311610a4c57829003601f168201915b505050505090806002018054610a7e90612b30565b80601f0160208091040260200160405190810160405280929190818152602001828054610aaa90612b30565b8015610af75780601f10610acc57610100808354040283529160200191610af7565b820191906000526020600020905b815481529060010190602001808311610ada57829003601f168201915b5050505050908060030160009054906101000a900473ffffffffffffffffffffffffffffffffffffffff16908060040160009054906101000a900473ffffffffffffffffffffffffffffffffffffffff16908060040160149054906101000a900460ff16908060040160159054906101000a900460ff1690806005018054610b7e90612b30565b80601f0160208091040260200160405190810160405280929190818152602001828054610baa90612b30565b8015610bf75780601f10610bcc57610100808354040283529160200191610bf7565b820191906000526020600020905b815481529060010190602001808311610bda57829003601f168201915b5050505050905088565b60606000600260008473ffffffffffffffffffffffffffffffffffffffff1673ffffffffffffffffffffffffffffffffffffffff168152602001908152602001600020805480602002602001604051908101604052809291908181526020018280548015610c8e57602002820191906000526020600020905b815481526020019060010190808311610c7a575b505050505090506000815167ffffffffffffffff811115610cb257610cb161275e565b5b604051908082528060200260200182016040528015610ceb57816020015b610cd861203a565b815260200190600190039081610cd05790505b50905060005b8251811015611015576001838281518110610d0f57610d0e612b61565b5b602002602001015181548110610d2857610d27612b61565b5b90600052602060002090600602016040518061010001604052908160008201548152602001600182018054610d5c90612b30565b80601f0160208091040260200160405190810160405280929190818152602001828054610d8890612b30565b8015610dd55780601f10610daa57610100808354040283529160200191610dd5565b820191906000526020600020905b815481529060010190602001808311610db857829003601f168201915b50505050508152602001600282018054610dee90612b30565b80601f0160208091040260200160405190810160405280929190818152602001828054610e1a90612b30565b8015610e675780601f10610e3c57610100808354040283529160200191610e67565b820191906000526020600020905b815481529060010190602001808311610e4a57829003601f168201915b505050505081526020016003820160009054906101000a900473ffffffffffffffffffffffffffffffffffffffff1673ffffffffffffffffffffffffffffffffffffffff1673ffffffffffffffffffffffffffffffffffffffff1681526020016004820160009054906101000a900473ffffffffffffffffffffffffffffffffffffffff1673ffffffffffffffffffffffffffffffffffffffff1673ffffffffffffffffffffffffffffffffffffffff1681526020016004820160149054906101000a900460ff161515151581526020016004820160159054906101000a900460ff16151515158152602001600582018054610f6290612b30565b80601f0160208091040260200160405190810160405280929190818152602001828054610f8e90612b30565b8015610fdb5780601f10610fb057610100808354040283529160200191610fdb565b820191906000526020600020905b815481529060010190602001808311610fbe57829003601f168201915b505050505081525050828281518110610ff757610ff6612b61565b5b6020026020010181905250808061100d90612bbf565b915050610cf1565b508092505050919050565b60006110706001848154811061103957611038612b61565b5b906000526020600020906006020160030160009054906101000a900473ffffffffffffffffffffffffffffffffffffffff16611f50565b8154811061108157611080612b61565b5b90600052602060002090600702016006015434146110d4576040517f08c379a00000000000000000000000000000000000000000000000000000000081526004016110cb90612c53565b60405180910390fd5b33600183815481106110e9576110e8612b61565b5b906000526020600020906006020160040160006101000a81548173ffffffffffffffffffffffffffffffffffffffff021916908373ffffffffffffffffffffffffffffffffffffffff16021790555060006001838154811061114e5761114d612b61565b5b906000526020600020906006020160040160146101000a81548160ff021916908315150217905550806001838154811061118b5761118a612b61565b5b906000526020600020906006020160050190816111a89190612e1f565b50600360003373ffffffffffffffffffffffffffffffffffffffff1673ffffffffffffffffffffffffffffffffffffffff1681526020019081526020016000208290806001815401808255809150506001900390600052602060002001600090919091909150556001828154811061122357611222612b61565b5b906000526020600020906006020160030160009054906101000a900473ffffffffffffffffffffffffffffffffffffffff1673ffffffffffffffffffffffffffffffffffffffff166108fc349081150290604051600060405180830381858888f1935050505015801561129a573d6000803e3d6000fd5b505050565b60606001805480602002602001604051908101604052809291908181526020016000905b828210156115985783829060005260206000209060060201604051806101000160405290816000820154815260200160018201805461130190612b30565b80601f016020809104026020016040519081016040528092919081815260200182805461132d90612b30565b801561137a5780601f1061134f5761010080835404028352916020019161137a565b820191906000526020600020905b81548152906001019060200180831161135d57829003601f168201915b5050505050815260200160028201805461139390612b30565b80601f01602080910402602001604051908101604052809291908181526020018280546113bf90612b30565b801561140c5780601f106113e15761010080835404028352916020019161140c565b820191906000526020600020905b8154815290600101906020018083116113ef57829003601f168201915b505050505081526020016003820160009054906101000a900473ffffffffffffffffffffffffffffffffffffffff1673ffffffffffffffffffffffffffffffffffffffff1673ffffffffffffffffffffffffffffffffffffffff1681526020016004820160009054906101000a900473ffffffffffffffffffffffffffffffffffffffff1673ffffffffffffffffffffffffffffffffffffffff1673ffffffffffffffffffffffffffffffffffffffff1681526020016004820160149054906101000a900460ff161515151581526020016004820160159054906101000a900460ff1615151515815260200160058201805461150790612b30565b80601f016020809104026020016040519081016040528092919081815260200182805461153390612b30565b80156115805780601f1061155557610100808354040283529160200191611580565b820191906000526020600020905b81548152906001019060200180831161156357829003601f168201915b505050505081525050815260200190600101906112c3565b50505050905090565b600360205281600052604060002081815481106115bd57600080fd5b90600052602060002001600091509150505481565b6000805b600080549050811015611677573373ffffffffffffffffffffffffffffffffffffffff166000828154811061160e5761160d612b61565b5b906000526020600020906007020160020160009054906101000a900473ffffffffffffffffffffffffffffffffffffffff1673ffffffffffffffffffffffffffffffffffffffff16036116645760019150611677565b808061166f90612bbf565b9150506115d6565b5060011515811515146116bf576040517f08c379a00000000000000000000000000000000000000000000000000000000081526004016116b690612f63565b60405180910390fd5b600060405180610100016040528060018054905081526020018581526020018481526020013373ffffffffffffffffffffffffffffffffffffffff168152602001600073ffffffffffffffffffffffffffffffffffffffff168152602001600115158152602001600015158152602001604051806020016040528060008152508152509050600181908060018154018082558091505060019003906000526020600020906006020160009091909190915060008201518160000155602082015181600101908161178f9190612e1f565b5060408201518160020190816117a59190612e1f565b5060608201518160030160006101000a81548173ffffffffffffffffffffffffffffffffffffffff021916908373ffffffffffffffffffffffffffffffffffffffff16021790555060808201518160040160006101000a81548173ffffffffffffffffffffffffffffffffffffffff021916908373ffffffffffffffffffffffffffffffffffffffff16021790555060a08201518160040160146101000a81548160ff02191690831515021790555060c08201518160040160156101000a81548160ff02191690831515021790555060e08201518160050190816118899190612e1f565b505050600260003373ffffffffffffffffffffffffffffffffffffffff1673ffffffffffffffffffffffffffffffffffffffff168152602001908152602001600020600180805490506118dc9190612f83565b908060018154018082558091505060019003906000526020600020016000909190919091505550505050565b6002602052816000526040600020818154811061192457600080fd5b90600052602060002001600091509150505481565b60606000600360003373ffffffffffffffffffffffffffffffffffffffff1673ffffffffffffffffffffffffffffffffffffffff1681526020019081526020016000208054806020026020016040519081016040528092919081815260200182805480156119c657602002820191906000526020600020905b8154815260200190600101908083116119b2575b505050505090506000815167ffffffffffffffff8111156119ea576119e961275e565b5b604051908082528060200260200182016040528015611a2357816020015b611a1061203a565b815260200190600190039081611a085790505b50905060005b8251811015611d4d576001838281518110611a4757611a46612b61565b5b602002602001015181548110611a6057611a5f612b61565b5b90600052602060002090600602016040518061010001604052908160008201548152602001600182018054611a9490612b30565b80601f0160208091040260200160405190810160405280929190818152602001828054611ac090612b30565b8015611b0d5780601f10611ae257610100808354040283529160200191611b0d565b820191906000526020600020905b815481529060010190602001808311611af057829003601f168201915b50505050508152602001600282018054611b2690612b30565b80601f0160208091040260200160405190810160405280929190818152602001828054611b5290612b30565b8015611b9f5780601f10611b7457610100808354040283529160200191611b9f565b820191906000526020600020905b815481529060010190602001808311611b8257829003601f168201915b505050505081526020016003820160009054906101000a900473ffffffffffffffffffffffffffffffffffffffff1673ffffffffffffffffffffffffffffffffffffffff1673ffffffffffffffffffffffffffffffffffffffff1681526020016004820160009054906101000a900473ffffffffffffffffffffffffffffffffffffffff1673ffffffffffffffffffffffffffffffffffffffff1673ffffffffffffffffffffffffffffffffffffffff1681526020016004820160149054906101000a900460ff161515151581526020016004820160159054906101000a900460ff16151515158152602001600582018054611c9a90612b30565b80601f0160208091040260200160405190810160405280929190818152602001828054611cc690612b30565b8015611d135780601f10611ce857610100808354040283529160200191611d13565b820191906000526020600020905b815481529060010190602001808311611cf657829003601f168201915b505050505081525050828281518110611d2f57611d2e612b61565b5b60200260200101819052508080611d4590612bbf565b915050611a29565b50809250505090565b600460009054906101000a900473ffffffffffffffffffffffffffffffffffffffff1673ffffffffffffffffffffffffffffffffffffffff163373ffffffffffffffffffffffffffffffffffffffff1614611de6576040517f08c379a0000000000000000000000000000000000000000000000000000000008152600401611ddd90613029565b60405180910390fd5b60006040518060e001604052808981526020018881526020018773ffffffffffffffffffffffffffffffffffffffff16815260200186815260200185815260200184815260200183815250905060008190806001815401808255809150506001900390600052602060002090600702016000909190919091506000820151816000019081611e749190612e1f565b506020820151816001019081611e8a9190612e1f565b5060408201518160020160006101000a81548173ffffffffffffffffffffffffffffffffffffffff021916908373ffffffffffffffffffffffffffffffffffffffff1602179055506060820151816003019081611ee79190612e1f565b506080820151816004019081611efd9190612e1f565b5060a0820151816005019081611f139190612e1f565b5060c0820151816006015550505050505050505050565b600460009054906101000a900473ffffffffffffffffffffffffffffffffffffffff1681565b600080600090505b600080549050811015611ff9578273ffffffffffffffffffffffffffffffffffffffff1660008281548110611f9057611f8f612b61565b5b906000526020600020906007020160020160009054906101000a900473ffffffffffffffffffffffffffffffffffffffff1673ffffffffffffffffffffffffffffffffffffffff1603611fe65780915050612035565b8080611ff190612bbf565b915050611f58565b506040517f08c379a000000000000000000000000000000000000000000000000000000000815260040161202c90613095565b60405180910390fd5b919050565b604051806101000160405280600081526020016060815260200160608152602001600073ffffffffffffffffffffffffffffffffffffffff168152602001600073ffffffffffffffffffffffffffffffffffffffff168152602001600015158152602001600015158152602001606081525090565b600081519050919050565b600082825260208201905092915050565b6000819050602082019050919050565b600081519050919050565b600082825260208201905092915050565b60005b838110156121155780820151818401526020810190506120fa565b60008484015250505050565b6000601f19601f8301169050919050565b600061213d826120db565b61214781856120e6565b93506121578185602086016120f7565b61216081612121565b840191505092915050565b600073ffffffffffffffffffffffffffffffffffffffff82169050919050565b60006121968261216b565b9050919050565b6121a68161218b565b82525050565b6000819050919050565b6121bf816121ac565b82525050565b600060e08301600083015184820360008601526121e28282612132565b915050602083015184820360208601526121fc8282612132565b9150506040830151612211604086018261219d565b50606083015184820360608601526122298282612132565b915050608083015184820360808601526122438282612132565b91505060a083015184820360a086015261225d8282612132565b91505060c083015161227260c08601826121b6565b508091505092915050565b600061228983836121c5565b905092915050565b6000602082019050919050565b60006122a9826120af565b6122b381856120ba565b9350836020820285016122c5856120cb565b8060005b8581101561230157848403895281516122e2858261227d565b94506122ed83612291565b925060208a019950506001810190506122c9565b50829750879550505050505092915050565b6000602082019050818103600083015261232d818461229e565b905092915050565b6000604051905090565b600080fd5b600080fd5b612352816121ac565b811461235d57600080fd5b50565b60008135905061236f81612349565b92915050565b60006020828403121561238b5761238a61233f565b5b600061239984828501612360565b91505092915050565b600082825260208201905092915050565b60006123be826120db565b6123c881856123a2565b93506123d88185602086016120f7565b6123e181612121565b840191505092915050565b6123f58161218b565b82525050565b612404816121ac565b82525050565b600060e0820190508181036000830152612424818a6123b3565b9050818103602083015261243881896123b3565b905061244760408301886123ec565b818103606083015261245981876123b3565b9050818103608083015261246d81866123b3565b905081810360a083015261248181856123b3565b905061249060c08301846123fb565b98975050505050505050565b60008115159050919050565b6124b18161249c565b82525050565b6000610100820190506124cd600083018b6123fb565b81810360208301526124df818a6123b3565b905081810360408301526124f381896123b3565b905061250260608301886123ec565b61250f60808301876123ec565b61251c60a08301866124a8565b61252960c08301856124a8565b81810360e083015261253b81846123b3565b90509998505050505050505050565b6125538161218b565b811461255e57600080fd5b50565b6000813590506125708161254a565b92915050565b60006020828403121561258c5761258b61233f565b5b600061259a84828501612561565b91505092915050565b600081519050919050565b600082825260208201905092915050565b6000819050602082019050919050565b6125d88161249c565b82525050565b6000610100830160008301516125f760008601826121b6565b506020830151848203602086015261260f8282612132565b915050604083015184820360408601526126298282612132565b915050606083015161263e606086018261219d565b506080830151612651608086018261219d565b5060a083015161266460a08601826125cf565b5060c083015161267760c08601826125cf565b5060e083015184820360e086015261268f8282612132565b9150508091505092915050565b60006126a883836125de565b905092915050565b6000602082019050919050565b60006126c8826125a3565b6126d281856125ae565b9350836020820285016126e4856125bf565b8060005b858110156127205784840389528151612701858261269c565b945061270c836126b0565b925060208a019950506001810190506126e8565b50829750879550505050505092915050565b6000602082019050818103600083015261274c81846126bd565b905092915050565b600080fd5b600080fd5b7f4e487b7100000000000000000000000000000000000000000000000000000000600052604160045260246000fd5b61279682612121565b810181811067ffffffffffffffff821117156127b5576127b461275e565b5b80604052505050565b60006127c8612335565b90506127d4828261278d565b919050565b600067ffffffffffffffff8211156127f4576127f361275e565b5b6127fd82612121565b9050602081019050919050565b82818337600083830152505050565b600061282c612827846127d9565b6127be565b90508281526020810184848401111561284857612847612759565b5b61285384828561280a565b509392505050565b600082601f8301126128705761286f612754565b5b8135612880848260208601612819565b91505092915050565b600080604083850312156128a05761289f61233f565b5b60006128ae85828601612360565b925050602083013567ffffffffffffffff8111156128cf576128ce612344565b5b6128db8582860161285b565b9150509250929050565b600080604083850312156128fc576128fb61233f565b5b600061290a85828601612561565b925050602061291b85828601612360565b9150509250929050565b600060208201905061293a60008301846123fb565b92915050565b600080604083850312156129575761295661233f565b5b600083013567ffffffffffffffff81111561297557612974612344565b5b6129818582860161285b565b925050602083013567ffffffffffffffff8111156129a2576129a1612344565b5b6129ae8582860161285b565b9150509250929050565b600080600080600080600060e0888a0312156129d7576129d661233f565b5b600088013567ffffffffffffffff8111156129f5576129f4612344565b5b612a018a828b0161285b565b975050602088013567ffffffffffffffff811115612a2257612a21612344565b5b612a2e8a828b0161285b565b9650506040612a3f8a828b01612561565b955050606088013567ffffffffffffffff811115612a6057612a5f612344565b5b612a6c8a828b0161285b565b945050608088013567ffffffffffffffff811115612a8d57612a8c612344565b5b612a998a828b0161285b565b93505060a088013567ffffffffffffffff811115612aba57612ab9612344565b5b612ac68a828b0161285b565b92505060c0612ad78a828b01612360565b91505092959891949750929550565b6000602082019050612afb60008301846123ec565b92915050565b7f4e487b7100000000000000000000000000000000000000000000000000000000600052602260045260246000fd5b60006002820490506001821680612b4857607f821691505b602082108103612b5b57612b5a612b01565b5b50919050565b7f4e487b7100000000000000000000000000000000000000000000000000000000600052603260045260246000fd5b7f4e487b7100000000000000000000000000000000000000000000000000000000600052601160045260246000fd5b6000612bca826121ac565b91507fffffffffffffffffffffffffffffffffffffffffffffffffffffffffffffffff8203612bfc57612bfb612b90565b5b600182019050919050565b7f496e76616c6964207061796d656e7420616d6f756e7400000000000000000000600082015250565b6000612c3d6016836123a2565b9150612c4882612c07565b602082019050919050565b60006020820190508181036000830152612c6c81612c30565b9050919050565b60008190508160005260206000209050919050565b60006020601f8301049050919050565b600082821b905092915050565b600060088302612cd57fffffffffffffffffffffffffffffffffffffffffffffffffffffffffffffffff82612c98565b612cdf8683612c98565b95508019841693508086168417925050509392505050565b6000819050919050565b6000612d1c612d17612d12846121ac565b612cf7565b6121ac565b9050919050565b6000819050919050565b612d3683612d01565b612d4a612d4282612d23565b848454612ca5565b825550505050565b600090565b612d5f612d52565b612d6a818484612d2d565b505050565b5b81811015612d8e57612d83600082612d57565b600181019050612d70565b5050565b601f821115612dd357612da481612c73565b612dad84612c88565b81016020851015612dbc578190505b612dd0612dc885612c88565b830182612d6f565b50505b505050565b600082821c905092915050565b6000612df660001984600802612dd8565b1980831691505092915050565b6000612e0f8383612de5565b9150826002028217905092915050565b612e28826120db565b67ffffffffffffffff811115612e4157612e4061275e565b5b612e4b8254612b30565b612e56828285612d92565b600060209050601f831160018114612e895760008415612e77578287015190505b612e818582612e03565b865550612ee9565b601f198416612e9786612c73565b60005b82811015612ebf57848901518255600182019150602085019450602081019050612e9a565b86831015612edc5784890151612ed8601f891682612de5565b8355505b6001600288020188555050505b505050505050565b7f4f6e6c792061207468657261706973742063616e2063616c6c2074686973206660008201527f756e6374696f6e00000000000000000000000000000000000000000000000000602082015250565b6000612f4d6027836123a2565b9150612f5882612ef1565b604082019050919050565b60006020820190508181036000830152612f7c81612f40565b9050919050565b6000612f8e826121ac565b9150612f99836121ac565b9250828203905081811115612fb157612fb0612b90565b5b92915050565b7f4f6e6c79207468652061646d696e2063616e2063616c6c20746869732066756e60008201527f6374696f6e000000000000000000000000000000000000000000000000000000602082015250565b60006130136025836123a2565b915061301e82612fb7565b604082019050919050565b6000602082019050818103600083015261304281613006565b9050919050565b7f546865726170697374206e6f7420666f756e6400000000000000000000000000600082015250565b600061307f6013836123a2565b915061308a82613049565b602082019050919050565b600060208201905081810360008301526130ae81613072565b905091905056fea2646970667358221220c52d6afe31fdc481b305777c5bfb944431040f93469f70fc5b66d442df19f1af64736f6c63430008120033",
  "linkReferences": {},
  "deployedLinkReferences": {}
}