{
  "_format": "hh-sol-artifact-1",
  "contractName": "therapy",
  "sourceName": "contracts/therapy.sol",
  "abi": [
    {
      "inputs": [],
      "stateMutability": "nonpayable",
      "type": "constructor"
    },
    {
      "inputs": [
        {
          "internalType": "uint256",
          "name": "_date",
          "type": "uint256"
        },
        {
          "internalType": "uint256",
          "name": "_slotTime",
          "type": "uint256"
        }
      ],
      "name": "addSlot",
      "outputs": [],
      "stateMutability": "nonpayable",
      "type": "function"
    },
    {
      "inputs": [
        {
          "internalType": "string",
          "name": "_name",
          "type": "string"
        },
        {
          "internalType": "string",
          "name": "_image",
          "type": "string"
        },
        {
          "internalType": "address",
          "name": "_walletAddress",
          "type": "address"
        },
        {
          "internalType": "string",
          "name": "_qualification",
          "type": "string"
        },
        {
          "internalType": "string",
          "name": "_description",
          "type": "string"
        },
        {
          "internalType": "string",
          "name": "_achievements",
          "type": "string"
        },
        {
          "internalType": "uint256",
          "name": "_payPerSlot",
          "type": "uint256"
        }
      ],
      "name": "addTherapist",
      "outputs": [],
      "stateMutability": "nonpayable",
      "type": "function"
    },
    {
      "inputs": [],
      "name": "admin",
      "outputs": [
        {
          "internalType": "address",
          "name": "",
          "type": "address"
        }
      ],
      "stateMutability": "view",
      "type": "function"
    },
    {
      "inputs": [
        {
          "internalType": "uint256",
          "name": "_slotIndex",
          "type": "uint256"
        }
      ],
      "name": "bookSlot",
      "outputs": [],
      "stateMutability": "payable",
      "type": "function"
    },
    {
      "inputs": [],
      "name": "getAllSlots",
      "outputs": [
        {
          "components": [
            {
              "internalType": "uint256",
              "name": "index",
              "type": "uint256"
            },
            {
              "internalType": "uint256",
              "name": "date",
              "type": "uint256"
            },
            {
              "internalType": "uint256",
              "name": "slotTime",
              "type": "uint256"
            },
            {
              "internalType": "address",
              "name": "createdBy",
              "type": "address"
            },
            {
              "internalType": "address",
              "name": "bookedBy",
              "type": "address"
            },
            {
              "internalType": "bool",
              "name": "isAvailable",
              "type": "bool"
            },
            {
              "internalType": "bool",
              "name": "isCompleted",
              "type": "bool"
            }
          ],
          "internalType": "struct therapy.Slot[]",
          "name": "",
          "type": "tuple[]"
        }
      ],
      "stateMutability": "view",
      "type": "function"
    },
    {
      "inputs": [],
      "name": "getAllSlotsByBookedBy",
      "outputs": [
        {
          "components": [
            {
              "internalType": "uint256",
              "name": "index",
              "type": "uint256"
            },
            {
              "internalType": "uint256",
              "name": "date",
              "type": "uint256"
            },
            {
              "internalType": "uint256",
              "name": "slotTime",
              "type": "uint256"
            },
            {
              "internalType": "address",
              "name": "createdBy",
              "type": "address"
            },
            {
              "internalType": "address",
              "name": "bookedBy",
              "type": "address"
            },
            {
              "internalType": "bool",
              "name": "isAvailable",
              "type": "bool"
            },
            {
              "internalType": "bool",
              "name": "isCompleted",
              "type": "bool"
            }
          ],
          "internalType": "struct therapy.Slot[]",
          "name": "",
          "type": "tuple[]"
        }
      ],
      "stateMutability": "view",
      "type": "function"
    },
    {
      "inputs": [
        {
          "internalType": "address",
          "name": "_createdBy",
          "type": "address"
        }
      ],
      "name": "getAllSlotsByCreatedBy",
      "outputs": [
        {
          "components": [
            {
              "internalType": "uint256",
              "name": "index",
              "type": "uint256"
            },
            {
              "internalType": "uint256",
              "name": "date",
              "type": "uint256"
            },
            {
              "internalType": "uint256",
              "name": "slotTime",
              "type": "uint256"
            },
            {
              "internalType": "address",
              "name": "createdBy",
              "type": "address"
            },
            {
              "internalType": "address",
              "name": "bookedBy",
              "type": "address"
            },
            {
              "internalType": "bool",
              "name": "isAvailable",
              "type": "bool"
            },
            {
              "internalType": "bool",
              "name": "isCompleted",
              "type": "bool"
            }
          ],
          "internalType": "struct therapy.Slot[]",
          "name": "",
          "type": "tuple[]"
        }
      ],
      "stateMutability": "view",
      "type": "function"
    },
    {
      "inputs": [],
      "name": "getAllTherapists",
      "outputs": [
        {
          "components": [
            {
              "internalType": "string",
              "name": "name",
              "type": "string"
            },
            {
              "internalType": "string",
              "name": "image",
              "type": "string"
            },
            {
              "internalType": "address",
              "name": "walletAddress",
              "type": "address"
            },
            {
              "internalType": "string",
              "name": "qualification",
              "type": "string"
            },
            {
              "internalType": "string",
              "name": "description",
              "type": "string"
            },
            {
              "internalType": "string",
              "name": "achievements",
              "type": "string"
            },
            {
              "internalType": "uint256",
              "name": "payPerSlot",
              "type": "uint256"
            }
          ],
          "internalType": "struct therapy.Therapist[]",
          "name": "",
          "type": "tuple[]"
        }
      ],
      "stateMutability": "view",
      "type": "function"
    },
    {
      "inputs": [
        {
          "internalType": "uint256",
          "name": "",
          "type": "uint256"
        }
      ],
      "name": "slots",
      "outputs": [
        {
          "internalType": "uint256",
          "name": "index",
          "type": "uint256"
        },
        {
          "internalType": "uint256",
          "name": "date",
          "type": "uint256"
        },
        {
          "internalType": "uint256",
          "name": "slotTime",
          "type": "uint256"
        },
        {
          "internalType": "address",
          "name": "createdBy",
          "type": "address"
        },
        {
          "internalType": "address",
          "name": "bookedBy",
          "type": "address"
        },
        {
          "internalType": "bool",
          "name": "isAvailable",
          "type": "bool"
        },
        {
          "internalType": "bool",
          "name": "isCompleted",
          "type": "bool"
        }
      ],
      "stateMutability": "view",
      "type": "function"
    },
    {
      "inputs": [
        {
          "internalType": "address",
          "name": "",
          "type": "address"
        },
        {
          "internalType": "uint256",
          "name": "",
          "type": "uint256"
        }
      ],
      "name": "therapistToSlots",
      "outputs": [
        {
          "internalType": "uint256",
          "name": "",
          "type": "uint256"
        }
      ],
      "stateMutability": "view",
      "type": "function"
    },
    {
      "inputs": [
        {
          "internalType": "uint256",
          "name": "",
          "type": "uint256"
        }
      ],
      "name": "therapists",
      "outputs": [
        {
          "internalType": "string",
          "name": "name",
          "type": "string"
        },
        {
          "internalType": "string",
          "name": "image",
          "type": "string"
        },
        {
          "internalType": "address",
          "name": "walletAddress",
          "type": "address"
        },
        {
          "internalType": "string",
          "name": "qualification",
          "type": "string"
        },
        {
          "internalType": "string",
          "name": "description",
          "type": "string"
        },
        {
          "internalType": "string",
          "name": "achievements",
          "type": "string"
        },
        {
          "internalType": "uint256",
          "name": "payPerSlot",
          "type": "uint256"
        }
      ],
      "stateMutability": "view",
      "type": "function"
    },
    {
      "inputs": [
        {
          "internalType": "address",
          "name": "",
          "type": "address"
        },
        {
          "internalType": "uint256",
          "name": "",
          "type": "uint256"
        }
      ],
      "name": "userToBookedSlots",
      "outputs": [
        {
          "internalType": "uint256",
          "name": "",
          "type": "uint256"
        }
      ],
      "stateMutability": "view",
      "type": "function"
    }
  ],
  "bytecode": "0x608060405234801561001057600080fd5b5033600460006101000a81548173ffffffffffffffffffffffffffffffffffffffff021916908373ffffffffffffffffffffffffffffffffffffffff1602179055506129cd806100616000396000f3fe6080604052600436106100a75760003560e01c80636285bfcf116100645780636285bfcf146101df5780637165d6e91461020a578063b7c2358014610247578063d3bc38da14610284578063db63e3a5146102af578063f851a440146102d8576100a7565b806302222aec146100ac57806319159e6e146100d557806324aeac6b146100f157806325e040ee1461011c578063387dd9e91461015f57806359f689d9146101a2575b600080fd5b3480156100b857600080fd5b506100d360048036038101906100ce9190611a6a565b610303565b005b6100ef60048036038101906100ea9190611aaa565b6105f5565b005b3480156100fd57600080fd5b506101066108b9565b6040516101139190611d31565b60405180910390f35b34801561012857600080fd5b50610143600480360381019061013e9190611aaa565b610c52565b6040516101569796959493929190611dbb565b60405180910390f35b34801561016b57600080fd5b5061018660048036038101906101819190611aaa565b610f6c565b6040516101999796959493929190611e68565b60405180910390f35b3480156101ae57600080fd5b506101c960048036038101906101c49190611f03565b611018565b6040516101d6919061207c565b60405180910390f35b3480156101eb57600080fd5b506101f4611294565b604051610201919061207c565b60405180910390f35b34801561021657600080fd5b50610231600480360381019061022c919061209e565b6113f3565b60405161023e91906120de565b60405180910390f35b34801561025357600080fd5b5061026e6004803603810190610269919061209e565b611424565b60405161027b91906120de565b60405180910390f35b34801561029057600080fd5b50610299611455565b6040516102a6919061207c565b60405180910390f35b3480156102bb57600080fd5b506102d660048036038101906102d1919061222e565b6116cf565b005b3480156102e457600080fd5b506102ed6118a3565b6040516102fa919061235c565b60405180910390f35b6000805b6000805490508110156103a8573373ffffffffffffffffffffffffffffffffffffffff166000828154811061033f5761033e612377565b5b906000526020600020906007020160020160009054906101000a900473ffffffffffffffffffffffffffffffffffffffff1673ffffffffffffffffffffffffffffffffffffffff160361039557600191506103a8565b80806103a0906123d5565b915050610307565b5060011515811515146103f0576040517f08c379a00000000000000000000000000000000000000000000000000000000081526004016103e79061248f565b60405180910390fd5b60006040518060e0016040528060018054905081526020018581526020018481526020013373ffffffffffffffffffffffffffffffffffffffff168152602001600073ffffffffffffffffffffffffffffffffffffffff168152602001600115158152602001600015158152509050600181908060018154018082558091505060019003906000526020600020906005020160009091909190915060008201518160000155602082015181600101556040820151816002015560608201518160030160006101000a81548173ffffffffffffffffffffffffffffffffffffffff021916908373ffffffffffffffffffffffffffffffffffffffff16021790555060808201518160040160006101000a81548173ffffffffffffffffffffffffffffffffffffffff021916908373ffffffffffffffffffffffffffffffffffffffff16021790555060a08201518160040160146101000a81548160ff02191690831515021790555060c08201518160040160156101000a81548160ff0219169083151502179055505050600260003373ffffffffffffffffffffffffffffffffffffffff1673ffffffffffffffffffffffffffffffffffffffff168152602001908152602001600020600180805490506105c991906124af565b908060018154018082558091505060019003906000526020600020016000909190919091505550505050565b600115156001828154811061060d5761060c612377565b5b906000526020600020906005020160040160149054906101000a900460ff1615151461066e576040517f08c379a00000000000000000000000000000000000000000000000000000000081526004016106659061252f565b60405180910390fd5b60006106be6001838154811061068757610686612377565b5b906000526020600020906005020160030160009054906101000a900473ffffffffffffffffffffffffffffffffffffffff166118c9565b815481106106cf576106ce612377565b5b9060005260206000209060070201600601543414610722576040517f08c379a00000000000000000000000000000000000000000000000000000000081526004016107199061259b565b60405180910390fd5b336001828154811061073757610736612377565b5b906000526020600020906005020160040160006101000a81548173ffffffffffffffffffffffffffffffffffffffff021916908373ffffffffffffffffffffffffffffffffffffffff16021790555060006001828154811061079c5761079b612377565b5b906000526020600020906005020160040160146101000a81548160ff021916908315150217905550600360003373ffffffffffffffffffffffffffffffffffffffff1673ffffffffffffffffffffffffffffffffffffffff1681526020019081526020016000208190806001815401808255809150506001900390600052602060002001600090919091909150556001818154811061083e5761083d612377565b5b906000526020600020906005020160030160009054906101000a900473ffffffffffffffffffffffffffffffffffffffff1673ffffffffffffffffffffffffffffffffffffffff166108fc349081150290604051600060405180830381858888f193505050501580156108b5573d6000803e3d6000fd5b5050565b60606000805480602002602001604051908101604052809291908181526020016000905b82821015610c4957838290600052602060002090600702016040518060e0016040529081600082018054610910906125ea565b80601f016020809104026020016040519081016040528092919081815260200182805461093c906125ea565b80156109895780601f1061095e57610100808354040283529160200191610989565b820191906000526020600020905b81548152906001019060200180831161096c57829003601f168201915b505050505081526020016001820180546109a2906125ea565b80601f01602080910402602001604051908101604052809291908181526020018280546109ce906125ea565b8015610a1b5780601f106109f057610100808354040283529160200191610a1b565b820191906000526020600020905b8154815290600101906020018083116109fe57829003601f168201915b505050505081526020016002820160009054906101000a900473ffffffffffffffffffffffffffffffffffffffff1673ffffffffffffffffffffffffffffffffffffffff1673ffffffffffffffffffffffffffffffffffffffff168152602001600382018054610a8a906125ea565b80601f0160208091040260200160405190810160405280929190818152602001828054610ab6906125ea565b8015610b035780601f10610ad857610100808354040283529160200191610b03565b820191906000526020600020905b815481529060010190602001808311610ae657829003601f168201915b50505050508152602001600482018054610b1c906125ea565b80601f0160208091040260200160405190810160405280929190818152602001828054610b48906125ea565b8015610b955780601f10610b6a57610100808354040283529160200191610b95565b820191906000526020600020905b815481529060010190602001808311610b7857829003601f168201915b50505050508152602001600582018054610bae906125ea565b80601f0160208091040260200160405190810160405280929190818152602001828054610bda906125ea565b8015610c275780601f10610bfc57610100808354040283529160200191610c27565b820191906000526020600020905b815481529060010190602001808311610c0a57829003601f168201915b50505050508152602001600682015481525050815260200190600101906108dd565b50505050905090565b60008181548110610c6257600080fd5b9060005260206000209060070201600091509050806000018054610c85906125ea565b80601f0160208091040260200160405190810160405280929190818152602001828054610cb1906125ea565b8015610cfe5780601f10610cd357610100808354040283529160200191610cfe565b820191906000526020600020905b815481529060010190602001808311610ce157829003601f168201915b505050505090806001018054610d13906125ea565b80601f0160208091040260200160405190810160405280929190818152602001828054610d3f906125ea565b8015610d8c5780601f10610d6157610100808354040283529160200191610d8c565b820191906000526020600020905b815481529060010190602001808311610d6f57829003601f168201915b5050505050908060020160009054906101000a900473ffffffffffffffffffffffffffffffffffffffff1690806003018054610dc7906125ea565b80601f0160208091040260200160405190810160405280929190818152602001828054610df3906125ea565b8015610e405780601f10610e1557610100808354040283529160200191610e40565b820191906000526020600020905b815481529060010190602001808311610e2357829003601f168201915b505050505090806004018054610e55906125ea565b80601f0160208091040260200160405190810160405280929190818152602001828054610e81906125ea565b8015610ece5780601f10610ea357610100808354040283529160200191610ece565b820191906000526020600020905b815481529060010190602001808311610eb157829003601f168201915b505050505090806005018054610ee3906125ea565b80601f0160208091040260200160405190810160405280929190818152602001828054610f0f906125ea565b8015610f5c5780601f10610f3157610100808354040283529160200191610f5c565b820191906000526020600020905b815481529060010190602001808311610f3f57829003601f168201915b5050505050908060060154905087565b60018181548110610f7c57600080fd5b90600052602060002090600502016000915090508060000154908060010154908060020154908060030160009054906101000a900473ffffffffffffffffffffffffffffffffffffffff16908060040160009054906101000a900473ffffffffffffffffffffffffffffffffffffffff16908060040160149054906101000a900460ff16908060040160159054906101000a900460ff16905087565b60606000600260008473ffffffffffffffffffffffffffffffffffffffff1673ffffffffffffffffffffffffffffffffffffffff1681526020019081526020016000208054806020026020016040519081016040528092919081815260200182805480156110a557602002820191906000526020600020905b815481526020019060010190808311611091575b505050505090506000815167ffffffffffffffff8111156110c9576110c8612103565b5b60405190808252806020026020018201604052801561110257816020015b6110ef6119b3565b8152602001906001900390816110e75790505b50905060005b825181101561128957600183828151811061112657611125612377565b5b60200260200101518154811061113f5761113e612377565b5b90600052602060002090600502016040518060e00160405290816000820154815260200160018201548152602001600282015481526020016003820160009054906101000a900473ffffffffffffffffffffffffffffffffffffffff1673ffffffffffffffffffffffffffffffffffffffff1673ffffffffffffffffffffffffffffffffffffffff1681526020016004820160009054906101000a900473ffffffffffffffffffffffffffffffffffffffff1673ffffffffffffffffffffffffffffffffffffffff1673ffffffffffffffffffffffffffffffffffffffff1681526020016004820160149054906101000a900460ff161515151581526020016004820160159054906101000a900460ff16151515158152505082828151811061126b5761126a612377565b5b60200260200101819052508080611281906123d5565b915050611108565b508092505050919050565b60606001805480602002602001604051908101604052809291908181526020016000905b828210156113ea57838290600052602060002090600502016040518060e00160405290816000820154815260200160018201548152602001600282015481526020016003820160009054906101000a900473ffffffffffffffffffffffffffffffffffffffff1673ffffffffffffffffffffffffffffffffffffffff1673ffffffffffffffffffffffffffffffffffffffff1681526020016004820160009054906101000a900473ffffffffffffffffffffffffffffffffffffffff1673ffffffffffffffffffffffffffffffffffffffff1673ffffffffffffffffffffffffffffffffffffffff1681526020016004820160149054906101000a900460ff161515151581526020016004820160159054906101000a900460ff161515151581525050815260200190600101906112b8565b50505050905090565b6003602052816000526040600020818154811061140f57600080fd5b90600052602060002001600091509150505481565b6002602052816000526040600020818154811061144057600080fd5b90600052602060002001600091509150505481565b60606000600360003373ffffffffffffffffffffffffffffffffffffffff1673ffffffffffffffffffffffffffffffffffffffff1681526020019081526020016000208054806020026020016040519081016040528092919081815260200182805480156114e257602002820191906000526020600020905b8154815260200190600101908083116114ce575b505050505090506000815167ffffffffffffffff81111561150657611505612103565b5b60405190808252806020026020018201604052801561153f57816020015b61152c6119b3565b8152602001906001900390816115245790505b50905060005b82518110156116c657600183828151811061156357611562612377565b5b60200260200101518154811061157c5761157b612377565b5b90600052602060002090600502016040518060e00160405290816000820154815260200160018201548152602001600282015481526020016003820160009054906101000a900473ffffffffffffffffffffffffffffffffffffffff1673ffffffffffffffffffffffffffffffffffffffff1673ffffffffffffffffffffffffffffffffffffffff1681526020016004820160009054906101000a900473ffffffffffffffffffffffffffffffffffffffff1673ffffffffffffffffffffffffffffffffffffffff1673ffffffffffffffffffffffffffffffffffffffff1681526020016004820160149054906101000a900460ff161515151581526020016004820160159054906101000a900460ff1615151515815250508282815181106116a8576116a7612377565b5b602002602001018190525080806116be906123d5565b915050611545565b50809250505090565b600460009054906101000a900473ffffffffffffffffffffffffffffffffffffffff1673ffffffffffffffffffffffffffffffffffffffff163373ffffffffffffffffffffffffffffffffffffffff161461175f576040517f08c379a00000000000000000000000000000000000000000000000000000000081526004016117569061268d565b60405180910390fd5b60006040518060e001604052808981526020018881526020018773ffffffffffffffffffffffffffffffffffffffff168152602001868152602001858152602001848152602001838152509050600081908060018154018082558091505060019003906000526020600020906007020160009091909190915060008201518160000190816117ed9190612859565b5060208201518160010190816118039190612859565b5060408201518160020160006101000a81548173ffffffffffffffffffffffffffffffffffffffff021916908373ffffffffffffffffffffffffffffffffffffffff16021790555060608201518160030190816118609190612859565b5060808201518160040190816118769190612859565b5060a082015181600501908161188c9190612859565b5060c0820151816006015550505050505050505050565b600460009054906101000a900473ffffffffffffffffffffffffffffffffffffffff1681565b600080600090505b600080549050811015611972578273ffffffffffffffffffffffffffffffffffffffff166000828154811061190957611908612377565b5b906000526020600020906007020160020160009054906101000a900473ffffffffffffffffffffffffffffffffffffffff1673ffffffffffffffffffffffffffffffffffffffff160361195f57809150506119ae565b808061196a906123d5565b9150506118d1565b506040517f08c379a00000000000000000000000000000000000000000000000000000000081526004016119a590612977565b60405180910390fd5b919050565b6040518060e00160405280600081526020016000815260200160008152602001600073ffffffffffffffffffffffffffffffffffffffff168152602001600073ffffffffffffffffffffffffffffffffffffffff1681526020016000151581526020016000151581525090565b6000604051905090565b600080fd5b600080fd5b6000819050919050565b611a4781611a34565b8114611a5257600080fd5b50565b600081359050611a6481611a3e565b92915050565b60008060408385031215611a8157611a80611a2a565b5b6000611a8f85828601611a55565b9250506020611aa085828601611a55565b9150509250929050565b600060208284031215611ac057611abf611a2a565b5b6000611ace84828501611a55565b91505092915050565b600081519050919050565b600082825260208201905092915050565b6000819050602082019050919050565b600081519050919050565b600082825260208201905092915050565b60005b83811015611b3d578082015181840152602081019050611b22565b60008484015250505050565b6000601f19601f8301169050919050565b6000611b6582611b03565b611b6f8185611b0e565b9350611b7f818560208601611b1f565b611b8881611b49565b840191505092915050565b600073ffffffffffffffffffffffffffffffffffffffff82169050919050565b6000611bbe82611b93565b9050919050565b611bce81611bb3565b82525050565b611bdd81611a34565b82525050565b600060e0830160008301518482036000860152611c008282611b5a565b91505060208301518482036020860152611c1a8282611b5a565b9150506040830151611c2f6040860182611bc5565b5060608301518482036060860152611c478282611b5a565b91505060808301518482036080860152611c618282611b5a565b91505060a083015184820360a0860152611c7b8282611b5a565b91505060c0830151611c9060c0860182611bd4565b508091505092915050565b6000611ca78383611be3565b905092915050565b6000602082019050919050565b6000611cc782611ad7565b611cd18185611ae2565b935083602082028501611ce385611af3565b8060005b85811015611d1f5784840389528151611d008582611c9b565b9450611d0b83611caf565b925060208a01995050600181019050611ce7565b50829750879550505050505092915050565b60006020820190508181036000830152611d4b8184611cbc565b905092915050565b600082825260208201905092915050565b6000611d6f82611b03565b611d798185611d53565b9350611d89818560208601611b1f565b611d9281611b49565b840191505092915050565b611da681611bb3565b82525050565b611db581611a34565b82525050565b600060e0820190508181036000830152611dd5818a611d64565b90508181036020830152611de98189611d64565b9050611df86040830188611d9d565b8181036060830152611e0a8187611d64565b90508181036080830152611e1e8186611d64565b905081810360a0830152611e328185611d64565b9050611e4160c0830184611dac565b98975050505050505050565b60008115159050919050565b611e6281611e4d565b82525050565b600060e082019050611e7d600083018a611dac565b611e8a6020830189611dac565b611e976040830188611dac565b611ea46060830187611d9d565b611eb16080830186611d9d565b611ebe60a0830185611e59565b611ecb60c0830184611e59565b98975050505050505050565b611ee081611bb3565b8114611eeb57600080fd5b50565b600081359050611efd81611ed7565b92915050565b600060208284031215611f1957611f18611a2a565b5b6000611f2784828501611eee565b91505092915050565b600081519050919050565b600082825260208201905092915050565b6000819050602082019050919050565b611f6581611e4d565b82525050565b60e082016000820151611f816000850182611bd4565b506020820151611f946020850182611bd4565b506040820151611fa76040850182611bd4565b506060820151611fba6060850182611bc5565b506080820151611fcd6080850182611bc5565b5060a0820151611fe060a0850182611f5c565b5060c0820151611ff360c0850182611f5c565b50505050565b60006120058383611f6b565b60e08301905092915050565b6000602082019050919050565b600061202982611f30565b6120338185611f3b565b935061203e83611f4c565b8060005b8381101561206f5781516120568882611ff9565b975061206183612011565b925050600181019050612042565b5085935050505092915050565b60006020820190508181036000830152612096818461201e565b905092915050565b600080604083850312156120b5576120b4611a2a565b5b60006120c385828601611eee565b92505060206120d485828601611a55565b9150509250929050565b60006020820190506120f36000830184611dac565b92915050565b600080fd5b600080fd5b7f4e487b7100000000000000000000000000000000000000000000000000000000600052604160045260246000fd5b61213b82611b49565b810181811067ffffffffffffffff8211171561215a57612159612103565b5b80604052505050565b600061216d611a20565b90506121798282612132565b919050565b600067ffffffffffffffff82111561219957612198612103565b5b6121a282611b49565b9050602081019050919050565b82818337600083830152505050565b60006121d16121cc8461217e565b612163565b9050828152602081018484840111156121ed576121ec6120fe565b5b6121f88482856121af565b509392505050565b600082601f830112612215576122146120f9565b5b81356122258482602086016121be565b91505092915050565b600080600080600080600060e0888a03121561224d5761224c611a2a565b5b600088013567ffffffffffffffff81111561226b5761226a611a2f565b5b6122778a828b01612200565b975050602088013567ffffffffffffffff81111561229857612297611a2f565b5b6122a48a828b01612200565b96505060406122b58a828b01611eee565b955050606088013567ffffffffffffffff8111156122d6576122d5611a2f565b5b6122e28a828b01612200565b945050608088013567ffffffffffffffff81111561230357612302611a2f565b5b61230f8a828b01612200565b93505060a088013567ffffffffffffffff8111156123305761232f611a2f565b5b61233c8a828b01612200565b92505060c061234d8a828b01611a55565b91505092959891949750929550565b60006020820190506123716000830184611d9d565b92915050565b7f4e487b7100000000000000000000000000000000000000000000000000000000600052603260045260246000fd5b7f4e487b7100000000000000000000000000000000000000000000000000000000600052601160045260246000fd5b60006123e082611a34565b91507fffffffffffffffffffffffffffffffffffffffffffffffffffffffffffffffff8203612412576124116123a6565b5b600182019050919050565b7f4f6e6c792061207468657261706973742063616e2063616c6c2074686973206660008201527f756e6374696f6e00000000000000000000000000000000000000000000000000602082015250565b6000612479602783611d53565b91506124848261241d565b604082019050919050565b600060208201905081810360008301526124a88161246c565b9050919050565b60006124ba82611a34565b91506124c583611a34565b92508282039050818111156124dd576124dc6123a6565b5b92915050565b7f536c6f74206e6f7420617661696c61626c650000000000000000000000000000600082015250565b6000612519601283611d53565b9150612524826124e3565b602082019050919050565b600060208201905081810360008301526125488161250c565b9050919050565b7f496e76616c6964207061796d656e7420616d6f756e7400000000000000000000600082015250565b6000612585601683611d53565b91506125908261254f565b602082019050919050565b600060208201905081810360008301526125b481612578565b9050919050565b7f4e487b7100000000000000000000000000000000000000000000000000000000600052602260045260246000fd5b6000600282049050600182168061260257607f821691505b602082108103612615576126146125bb565b5b50919050565b7f4f6e6c79207468652061646d696e2063616e2063616c6c20746869732066756e60008201527f6374696f6e000000000000000000000000000000000000000000000000000000602082015250565b6000612677602583611d53565b91506126828261261b565b604082019050919050565b600060208201905081810360008301526126a68161266a565b9050919050565b60008190508160005260206000209050919050565b60006020601f8301049050919050565b600082821b905092915050565b60006008830261270f7fffffffffffffffffffffffffffffffffffffffffffffffffffffffffffffffff826126d2565b61271986836126d2565b95508019841693508086168417925050509392505050565b6000819050919050565b600061275661275161274c84611a34565b612731565b611a34565b9050919050565b6000819050919050565b6127708361273b565b61278461277c8261275d565b8484546126df565b825550505050565b600090565b61279961278c565b6127a4818484612767565b505050565b5b818110156127c8576127bd600082612791565b6001810190506127aa565b5050565b601f82111561280d576127de816126ad565b6127e7846126c2565b810160208510156127f6578190505b61280a612802856126c2565b8301826127a9565b50505b505050565b600082821c905092915050565b600061283060001984600802612812565b1980831691505092915050565b6000612849838361281f565b9150826002028217905092915050565b61286282611b03565b67ffffffffffffffff81111561287b5761287a612103565b5b61288582546125ea565b6128908282856127cc565b600060209050601f8311600181146128c357600084156128b1578287015190505b6128bb858261283d565b865550612923565b601f1984166128d1866126ad565b60005b828110156128f9578489015182556001820191506020850194506020810190506128d4565b868310156129165784890151612912601f89168261281f565b8355505b6001600288020188555050505b505050505050565b7f546865726170697374206e6f7420666f756e6400000000000000000000000000600082015250565b6000612961601383611d53565b915061296c8261292b565b602082019050919050565b6000602082019050818103600083015261299081612954565b905091905056fea2646970667358221220a72d28fbfdceb6b1f40f6e0c00a0307489c123cb63b17bfc05c28c8415c0ef8164736f6c63430008120033",
  "linkReferences": {},
  "deployedLinkReferences": {}
}